:020000040800F2
:10000000980E002069010008710100082D07000802
:1000100000000000000000000000000000000000E0
:100020000000000000000000000000007501000852
:10003000000000000000000077010008550C0008D7
:100040007B010008000000007B0100087B01000824
:100050007B0100087B0100087B0100087B01000890
:10006000000000007B0100087B0100087B01000804
:100070007B0100087B0100087B01000800000000F4
:100080007B0100087B010008000000007B010008E4
:100090007B0100087B0100087B0100087B01000850
:1000A0007B0100087B0100087B0100087B01000840
:1000B0003D0E000800F002F800F046F80CA030C831
:1000C000083824182D18A246671EAB4654465D46D4
:1000D000AC4201D100F038F87E460F3E0FCCB64658
:1000E0000126334200D0FB1AA246AB4633431847E1
:1000F0007C1200009C120000103A02D378C878C12C
:10010000FAD8520701D330C830C101D504680C6059
:10011000704700000023002400250026103A01D378
:1001200078C1FBD8520700D330C100D50B607047AF
:1001300010B5782902D100F07DF810BD002010BD67
:100140001FB51FBD10B510BD00F0C5F91146FFF772
:10015000F7FF01F0ABF800F0DDF903B4FFF7F2FFB1
:1001600003BC00F0E3F90000074880470748004758
:10017000FEE7FEE7FEE7FEE7FEE7FEE70448054987
:10018000054A064B70470000C90D0008B50000087D
:1001900098080020980E0020980A0020980A002055
:1001A0000FB41CB5074B06AA7B446946009005981E
:1001B00000F079F90020694600F088F91CBC08BC01
:1001C00004B0184721030000F8B50E46044600208D
:1001D00020622046E1688847002829D0252802D0DF
:1001E0006268A16820E0E168204600278847050092
:1001F0001ED028464138192802D80127FF02203591
:100200003246204627602946FFF792FF002808D093
:10021000012804D0F61DF608F6000836D9E7361D89
:10022000D7E762682846A1689047206A401CCFE75C
:10023000206AF8BD70B504460D4621461068C046D8
:10024000C0462188090502D50F4A7A4402E00E4AC9
:100250007A440E3223460021243305E006070009C4
:10026000360F965D5E54491C0028F7D12078002394
:10027000000705D5702D03D0002901D002231132CB
:10028000204600F0B3F870BDF6100000002203090C
:100290008B422CD3030A8B4211D300239C464EE0A1
:1002A00003460B433CD4002243088B4231D303095D
:1002B0008B421CD3030A8B4201D394463FE0C3090F
:1002C0008B4201D3CB01C01A524183098B4201D327
:1002D0008B01C01A524143098B4201D34B01C01A12
:1002E000524103098B4201D30B01C01A5241C3088A
:1002F0008B4201D3CB00C01A524183088B4201D3F9
:100300008B00C01A524143088B4201D34B00C01AE4
:100310005241411A00D201465241104670475DE0F9
:10032000CA0F00D04942031000D34042534000227C
:100330009C4603098B422DD3030A8B4212D3FC2225
:10034000890112BA030A8B420CD3890192118B42A4
:1003500008D3890192118B4204D389013AD09211BA
:1003600000E08909C3098B4201D3CB01C01A524175
:1003700083098B4201D38B01C01A524143098B423E
:1003800001D34B01C01A524103098B4201D30B0127
:10039000C01A5241C3088B4201D3CB00C01A52414C
:1003A00083088B4201D38B00C01A5241D9D2430833
:1003B0008B4201D34B00C01A5241411A00D2014670
:1003C000634652415B10104601D34042002B00D5DA
:1003D0004942704763465B1000D3404201B500209C
:1003E000C046C04602BD704770477047FFB504461F
:1003F0000D4681B0243000902168880604D5102273
:10040000E0699143216000E00120A84201DD471B23
:1004100000E000270498A1697A191018081AA06151
:100420002078C00602D42046C046C046002608E018
:1004300003986268A168805D9047206A401C761C22
:10044000206204988642F3DB2078C0060AD5204655
:10045000C046C04606E06268A16830209047206A26
:10046000401C206238467F1E0028F4DC07E000981C
:100470006268A168405D9047206A401C206228465F
:100480006D1E0028F3DC2046C046C04620780006DA
:1004900002D5022005B0F0BD0120FBE701694A1C2E
:1004A00002610878704700B58FB002910021059174
:1004B0000549019379440391114604906846FFF77A
:1004C00083FE0FB000BD0000E5FFFFFF0A6810705B
:1004D000521C0A607047754600F024F8AE460500CD
:1004E00069465346C008C000854618B020B5FFF7DE
:1004F00045FE60BC00274908B6460026C0C5C0C5F9
:10050000C0C5C0C5C0C5C0C5C0C5C0C5403D490007
:100510008D46704710B50446C046C0462046FFF7DA
:100520001CFE10BD00487047380800200149182003
:10053000ABBEFEE72600020070470000034840699A
:100540004021084301494861704700000010024003
:100550000148008870470000000000200221024A84
:10056000118002490860704700000020040000204C
:1005700010B50423044C2380044B1860044B19600D
:10058000044B1A6010BD0000000000200400002091
:10059000080000200C00002002480349486003487E
:1005A000486070472301674500200240AB89EFCDCA
:1005B00000B53E480088030000F00AFD0604050F60
:1005C00022374D7670E03A48C06820210840002864
:1005D00002D000203549088066E0354800690221D4
:1005E0000843334908613348006848610846006998
:1005F000402108432E49086103202C49088053E01C
:100600002B48C0682021084000280DD02020284910
:10061000C860084600690221884325490861002016
:1006200025490860214908803EE0214800690121F0
:1006300008431F4908612048006840001F490968B5
:10064000085A1D49096849001A4A12685052052083
:100650001649088028E01648C06820210840002874
:1006600021D00420114908801148C0682021084386
:100670000F49C860084600694008400008610E48FC
:100680000068401C0C4908600846006840000949A1
:10069000096840180A490968884204D100200649BF
:1006A00008600249088000BF00BF00BD00000020B4
:1006B0000020024004000020100000200C00002058
:1006C000080000200EB5174840690121890408433D
:1006D0001449486108464069012149040843114909
:1006E00048610020009001900346012201460290DB
:1006F0000D4800F05FFD00200090019003460122AC
:1007000011460290084800F055FD0020009001902D
:10071000034601220B2102900920C00600F04AFD89
:100720000EBD0000001002400004004800BF00BFE2
:1007300000BF00BF00BFBFF34F8F00BF00BF00BFAF
:1007400006480749C86000BF00BF00BFBFF34F8F16
:1007500000BF00BF00BF00BF00BFFDE70400FA05F7
:1007600000ED00E010B58CB000F02AFCFFF7F0FEC1
:10077000002879D1A4480078030000F029FC0D0876
:10078000090B6683D19AABDC08E9FEFD080038E16D
:1007900000F02CFC9D480088DE2801D100F026FCEA
:1007A0009A480088552807D199A104A8FFF7F8FCBA
:1007B00004A800F0C3FB45E094480088012802D15A
:1007C00000F064FD3EE09148008802280DD103202E
:1007D0008D49087000209049088090A104A8FFF777
:1007E000DFFC04A800F0AAFB2CE08848008804285D
:1007F0000DD10A208449087000208749088087A10C
:1008000004A8FFF7CDFC04A800F098FB1AE0854887
:1008100000880121C90288420AD183A104A8FFF7F8
:10082000BFFC04A800F08AFB00207749087009E0AB
:1008300080A104A8FFF7B4FC04A800F07FFB00200F
:100840007149087000F0ECFBDBE076480088002876
:1008500017D000F049FD6D480088794908606B4861
:1008600080887849086000E0CCE077A104A8FFF711
:1008700097FC04A800F062FB00F0D2FB0420624960
:100880000870BEE067480088002811D000F02CFDF9
:100890005E4800686F4908606FA104A8FFF780FCFC
:1008A00004A800F04BFB00F0BBFB06205649087083
:1008B000A7E05C48008801218902884209D107200D
:1008C0005149087067A104A8FFF76AFC04A800F06A
:1008D00035FB96E067494D4800F0E8FB04465D486B
:1008E000006884420ED156480068FFF737FE62A1C7
:1008F00004A8FFF755FC04A800F020FB052042499E
:1009000008700CE0234653485EA1026804A8FFF774
:1009100047FC04A800F012FB00203B49087070E07F
:100920003A4A4848016846480068FFF721FE082017
:100930003549087065E057A104A8FFF731FC00F0C5
:100940006FFB04A800F0FAFA00202F49087058E065
:100950003448008800281DD000F0C6FC2B480068F1
:100960003749086029484068364908602748806848
:10097000384908604B4801E03DE00CE0FFF7EEFD30
:1009800035A104A8FFF70CFC04A800F0D7FA0B204F
:100990001D49087035E02B4801682948006800F0BF
:1009A00085FB04462B480068A04217D132A104A859
:1009B000FFF7F6FB04A800F0C1FA21480068019097
:1009C00020480068029023480068039001AA354936
:1009D0000E313448801CFFF7CBFD06E032A104A89D
:1009E000FFF7DEFB04A800F0A9FA0C200649087006
:1009F00000F016FB05E000F027FB0020024908701C
:100A000000BF00BF0CB010BD160000203800002051
:100A1000426F6F740A000000140000207265616468
:100A2000790A00002C0000204F76657272756E0AFC
:100A300000000000436F6D206572720A0000000024
:100A4000180000201C000020616464722067657437
:100A50000A00000020000020637263206765740AAA
:100A600000000000706167652072656365697665E6
:100A7000640A0000380400206372632072696768AA
:100A8000740A000063726320255820657272202565
:100A9000580A000050616765207772697465640ABE
:100AA00000000000001C0008216372630A000000BF
:100AB0000CB50020019000902248006822490840AF
:100AC00020490860084600680121090408431D49BF
:100AD000086000BF1B480068012149040840002845
:100AE000F8D0184840680321090488431549486034
:100AF0000846406801210904084312494860084635
:100B000000680121090608430E49086000BF0D482E
:100B100000680121490608400028F8D009484068CB
:100B20008008800007494860084640680221084361
:100B30000449486000BF034840680C210840082869
:100B4000F9D10CBD00100240FFFFFEFE002904D0C9
:100B5000012908D0022914D10BE00B4A1080012290
:100B60000A4B9A610DE00A4A10800222074B9A61F3
:100B700007E0084A10800122D2020923DB069A61AD
:100B800000BF00BF704700002400002000040048A0
:100B900026000020280000202C482D490968012249
:100BA000120411432A4A116000BF0146401E002969
:100BB00006D0274909680122520411400029F4D0C7
:100BC0002349096801225204114000293CD02049E0
:100BD0004968F02291431E4A516011464968072234
:100BE000120291431A4A5160114649683F22120489
:100BF0009143174A5160114649681122120411436A
:100C0000134A516011460968012212061143104A25
:100C1000116000BF0E4909680122520611400029E7
:100C2000F8D00B49496889088900094A5160114682
:100C3000496802221143064A516000BF04494968CD
:100C40000C2211400829F9D17047000040420F00E2
:100C50000010024000B521480088002805D01F4838
:100C60000088401E1D4908800BE000219620FFF7F8
:100C70006DFF02219620FFF769FF7D20C000174914
:100C8000088017480088002805D015480088401EB5
:100C90001349088003E001200004124988611248CA
:100CA0000088002805D010480088401E0E490880A2
:100CB00003E0012040040B4988610C4800880028AB
:100CC00005D00A480088401E0849088004E0012039
:100CD000C0060921C906886100BD00002A00002065
:100CE00024000020000400482600002028000020E6
:100CF00010B500F011F87D21C90005480068FFF724
:100D0000C5FA04494861002088610720086110BDC8
:100D10003400002000E000E0F8B5002500240026A3
:100D20000027244840680C2108400546002D04D0C7
:100D3000042D06D0082D2BD107E01F481F4908605D
:100D40002AE01D481D49086026E01A4840680F2126
:100D500089040840044617484068012109040840F6
:100D60000646A00C841C1348C06A0007000F471CED
:100D70000846864207D139460F48FFF787FA604395
:100D80000E49086003E00E4860430C49086003E028
:100D900009480A49086000BF00BF06484068F021C2
:100DA0000840000907490D5C04480068E840034911
:100DB0000860F8BD0010024000127A0034000020E4
:100DC00000093D002C130008194800680121084360
:100DD00017490860084640681649084014494860A9
:100DE0000846006814490840114908600846006830
:100DF0000121890488430E490860084640683F2164
:100E0000090488430A4948600846C06A000900018D
:100E1000C8620846006BFF21143188430449086307
:100E20000846406B400840004863002088607047D7
:100E3000001002400CB8FF08FFFFF6FE10484068A3
:100E40000F21090408430E4948600D48403080696D
:100E5000400840000A49403188610A488088C861DA
:100E6000084680690121084305494031886100BF77
:100E7000034800680121490408400028F8D0704761
:100E8000000002402044004010B504462548406957
:100E900025490843234948610846C069012149049E
:100EA00008432049C8610920C0060068F021884332
:100EB0000921C906086008460068A02108430921E5
:100EC000C90608600846006AFF2109028843092113
:100ED000C90608620846006A11210902084309216F
:100EE000C9060862FFF718FF002010490860486033
:100EF000C020886021460E480068FFF7C7F90B49FB
:100F0000C8600D2008600B480B494862802088614A
:100F10000648243008629020486004482830C860A1
:100F200010BD00000010024001000200004400401B
:100F30003400002038000020400002400021144A04
:100F4000106101E04A1C91B20378401C002BF9D1DA
:100F50000F4A403A52680F231B031A430C4B403B85
:100F60005A600B4A526852085200094B5A601A469E
:100F70009160526801231A43054B5A6000BF044A2E
:100F8000403A126801235B031A40002AF7D07047E9
:100F900040000240074808490860084808600720E8
:100FA00048600020C043886000BF0348C068002834
:100FB000FBD17047CCCC00000030004055550000FC
:100FC0000148024908607047AAAA000000300040AA
:100FD00030B47446641E2578641CAB4204D3635D50
:100FE0005B00E31830BC18471D46F8E700BF00BFA0
:100FF00000BFBFF34F8F00BF00BF00BF06480749C7
:10100000C86000BF00BF00BFBFF34F8F00BF00BF6D
:1010100000BF00BF00BFFDE70400FA0500ED00E0DF
:10102000002004E00021064A1154411C88B2054901
:1010300009888842F6DB00200249088070470000DA
:10104000380000202C00002070B51648808800046D
:10105000144949880843064612480089000411498A
:10106000C988084304460F48808900040D4949890E
:1010700008430546701C002812D0601C00280FD0C1
:10108000681C00280CD02146304600F00FF8A8421A
:1010900006D1044800880449884201D000F0F6F8DF
:1010A00070BD0000001C0008ADDE00000246E1201B
:1010B000064B98608A4206D003E0044B1068186023
:1010C000121D8A42F9D10148006870470030024081
:1010D00010B532480088002802D001285BD120E0FA
:1010E0002F48C06920210840002819D02D484068A9
:1010F0000F21090408432B494860C814294940318D
:10110000C861084680690121084326494031886149
:101110000020254908802549088001201F490880B2
:1011200039E01F48C06910210840002804D01E483B
:101130000088401C1C4908801A48006801214904A5
:101140000840002806D00020144908800120C00271
:101150001649088014480088154988421ADB10484F
:10116000006A0121C90208430D4908620D48403058
:10117000C069C914081A0D4908800A4840308069BE
:101180004008400007494031886100F0C5F8002060
:101190000249088000BF00BF10BD00002E000020E3
:1011A0000044004000000240300000202C000020DD
:1011B000FFFF0000F0B5059C05684F000326BE4008
:1011C000B543056005684E001746B7403D430560CE
:1011D000456802268E40B543456045681E468E40F0
:1011E0003543456085684F000326BE40B5438560A2
:1011F00085684E002746B7403D438560C5684F006F
:101200000326BE40B543C560C6684F00069DBD407D
:101210002E43C660072901DD012500E00025AE0050
:1012200005462035AD59072901DD012600E00026DD
:10123000F6008E1BB7000F26BE40B543072901DD1F
:10124000012600E00026B60007462037BD510729D9
:1012500001DD012500E00025AE0005462035AE5930
:10126000072901DD012500E00025ED004D1BAF0041
:10127000079DBD402E43072901DD012500E0002523
:10128000AD00074620377E51F0BD000070B572B644
:101290000548446825460146086880F3088800BF71
:1012A00062B6A84770BD00000020000888B000F0BA
:1012B00021F80A48FFF7E8FD09A16846FEF770FF2C
:1012C0006846FFF73BFE07E0FFF77AFEFFF700FFF7
:1012D000FFF748FAFFF76CF9F6E7000080841E007C
:1012E000426F6F740A0000000020014908807047B7
:1012F0002E00002010B5FFF74DFEFFF74DFCFFF765
:10130000D7FBFFF71BF9FFF7DDF9FFF79DFEFFF7AE
:1013100043F9FFF7EDFC10BD03480078002802D127
:1013200002200149087070471600002000000000EC
:101330000000000001020304060708090000000085
:101340000102030430313233343536373839414203
:101350004344454640305800303132333435363717
:101360003839616263646566403078008C13000828
:101370000000002038000000F8000008C413000836
:1013800038000020600E000014010008000000007A
:10139000000000000000000000000000000000004D
:1013A000000000000000000000000000000000003D
:1013B000000000000000000000000000000000002D
:0413C00000127A009D
:04000005080000B53A
:00000001FF
